S01200004E54495F524F554E44322E737265630E
S11300000C942A000C9456030C947D030C94A403C2
S11300100C9447000C9447000C9447000C94470040
S11300200C9447000C9447000C94F2030C94CB03FB
S11300300C9447000C9447000C9447000C94470020
S11300400C9455020C9447000C9447000C94470000
S11300500C94470011241FBECFE5D8E0DEBFCDBF0E
S113006010E0A0E6B0E0E0EAF8E002C005900D92EE
S1130070A237B107D9F720E0A2E7B0E001C01D9292
S1130080A738B207E1F70E946C000C944E040C945C
S1130090000081E090E0909373008093720080915F
S11300A06B00811107C084B195B190937A0080935D
S11300B079000895813079F484B195B10024880FD2
S11300C0991F001C880F991F001C892F902D909355
S11300D07A0080937900089540E060E080E00E9417
S11300E07C020E941E020E943E020E94420260E0C4
S11300F089E490E00E944A020E947E0161E081E06E
S11301000E94E1010E944602809172009091730066
S11301100197D1F74AE064E770E08091790090910B
S11301207A000E94190484E790E00E9461012FEF95
S113013083ED90E3215080409040E1F700C000003F
S11301408EE690E00E94610161E081E00E94E1019D
S11301500E9446021092730010927200D5CFCF9382
S1130160C82F80FF08C0E0E6F0E0668141E08181AD
S11301700E94E90207C0E0E6F0E0668140E0818188
S11301800E94E902C1FF08C0E0E6F0E0678141E0B7
S113019081810E94E90207C0E0E6F0E0678140E067
S11301A081810E94E902C2FF08C0E0E6F0E06085B8
S11301B041E081810E94E90207C0E0E6F0E0608549
S11301C040E081810E94E902C3FF08C0E0E6F0E05C
S11301D0618541E081810E94E90207C0E0E6F0E028
S11301E0618540E081810E94E902CF9108951F93C7
S11301F0CF93DF93182FC0E6D0E06D8140E0888173
S11302000E94E902812F0E94AF006C8141E0888145
S11302100E94E9028FEC97E00197F1F700C000001B
S11302206C8140E088810E94E902DF91CF911F91A7
S113023008950F931F93CF93DF93082F0F70182FF8
S1130240107FC0E6D0E06D8141E088810E94E90220
S1130250812F82958F700E94AF006C8141E088816C
S11302600E94E9028FEC97E00197F1F700C00000CB
S11302706C8140E088810E94E9028FEC97E001974D
S1130280F1F700C00000802F0E94AF006C8141E0B4
S113029088810E94E9028FEC97E00197F1F700C092
S11302A000006C8140E088810E94E9028FEC97E0B5
S11302B00197F1F700C00000DF91CF911F910F91DA
S11302C008950F931F93CF93DF938C01C0E0D0E088
S11302D003C00E9419012196F801EC0FFD1F8081D3
S11302E08111F7CFDF91CF911F910F91089580E095
S11302F00E94F70081E00E94F7000895CF93DF93F6
S1130300C0E6D0E06E8141E089810E947C026F8169
S113031041E089810E947C02688541E089810E94D4
S11303207C02698541E089810E947C026D8141E003
S113033088810E947C026C8141E088810E947C0259
S113034080E00E94AF002FEF86E791E021508040CB
S11303509040E1F700C000008FEC97E00197F1F7BF
S113036000C0000083E00E94F7008FE19EE4019743
S1130370F1F700C0000083E00E94F70087E592E0F7
S11303800197F1F700C0000083E00E94F70082E0CB
S11303900E94F70082E00E94F70088E00E94F700C4
S11303A080E00E94F7008CE00E94F70080E00E9449
S11303B0F70086E00E94F7000E947701DF91CF9159
S11303C008951F93CF93DF93C82FD62F813059F40C
S11303D08FE7860F182F1F7082958F700E94F70089
S11303E0812F0E94F700C23059F48FEB8D0F182F24
S11303F01F7082958F700E94F700812F0E94F70072
S1130400C33059F483E98D0F182F1F7082958F70B4
S11304100E94F700812F0E94F700C43059F483ED45
S11304208D0FC82FCF7082958F700E94F7008C2F8C
S11304300E94F700DF91CF911F91089587B18F73C8
S113044087B927B1EAE6F0E0908130E4939FC001D8
S11304501124822B87B987B18F7D87B927B1918108
S113046030E2939FC0011124822B87B986B1887F23
S113047086B996B18381892B86B9089586B180683F
S113048086B9089586B1886086B9089586B1806476
S113049086B9089527B1207E27B927B1622B67B9A1
S11304A090937C0080937B0008951F920F920FB667
S11304B00F9211242F933F934F935F936F937F93E6
S11304C08F939F93AF93BF93EF93FF93E0917B0040
S11304D0F0917C000995FF91EF91BF91AF919F91AD
S11304E08F917F916F915F914F913F912F910F90D9
S11304F00FBE0F901F901895813001F130F08230BB
S1130500B1F1833009F44CC00895413059F42AB351
S113051081E090E002C0880F991F6A95E2F7822B70
S11305208ABB08952AB381E090E002C0880F991F26
S11305306A95E2F7809582238ABB0895413059F485
S113054027B381E090E002C0880F991F6A95E2F713
S1130550822B87BB089527B381E090E002C0880F07
S1130560991F6A95E2F78095822387BB08954130ED
S113057059F424B381E090E002C0880F991F6A9572
S1130580E2F7822B84BB089524B381E090E002C09B
S1130590880F991F6A95E2F78095822384BB08959A
S11305A0413059F421B381E090E002C0880F991FD3
S11305B06A95E2F7822B81BB089521B381E090E034
S11305C002C0880F991F6A95E2F78095822381BB48
S11305D00895813001F130F08230B1F1833009F4B3
S11305E04CC0089541110CC02BB381E090E002C0CF
S11305F0880F991F6A95E2F7809582238BBB089533
S11306002BB381E090E002C0880F991F6A95E2F74E
S1130610822B8BBB089541110CC028B381E090E07C
S113062002C0880F991F6A95E2F78095822388BBE0
S1130630089528B381E090E002C0880F991F6A955D
S1130640E2F7822B88BB089541110CC025B381E0E9
S113065090E002C0880F991F6A95E2F78095822383
S113066085BB089525B381E090E002C0880F991FEF
S11306706A95E2F7822B85BB089541110CC022B321
S113068081E090E002C0880F991F6A95E2F7809597
S1130690822382BB089522B381E090E002C0880FD8
S11306A0991F6A95E2F7822B82BB08951F920F92DD
S11306B00FB60F9211242F933F934F935F936F9331
S11306C07F938F939F93AF93BF93EF93FF93E091A7
S11306D07D00F0917E000995FF91EF91BF91AF915C
S11306E09F918F917F916F915F914F913F912F9146
S11306F00F900FBE0F901F9018951F920F920FB678
S11307000F9211242F933F934F935F936F937F9393
S11307108F939F93AF93BF93EF93FF93E0918100E7
S1130720F09182000995FF91EF91BF91AF919F9154
S11307308F917F916F915F914F913F912F910F9086
S11307400FBE0F901F9018951F920F920FB60F9225
S113075011242F933F934F935F936F937F938F93C2
S11307609F93AF93BF93EF93FF93E0917F00F0913A
S113077080000995FF91EF91BF91AF919F918F9167
S11307807F916F915F914F913F912F910F900FBE89
S11307900F901F9018951F920F920FB60F9211246D
S11307A02F933F934F935F936F937F938F939F9375
S11307B0AF93BF93EF93FF93E0918500F091860090
S11307C00995FF91EF91BF91AF919F918F917F9187
S11307D06F915F914F913F912F910F900FBE0F90AA
S11307E01F9018951F920F920FB60F9211242F93FA
S11307F03F934F935F936F937F938F939F93AF93A5
S1130800BF93EF93FF93E0918300F09184000995E7
S1130810FF91EF91BF91AF919F918F917F916F91D4
S11308205F914F913F912F910F900FBE0F901F90AA
S11308301895BB274A3031F4992322F4BDE29095F0
S113084081959F4F0C942504BB27FB015527AA27AC
S1130850880F991FAA1FA41710F0A41B8395505149
S1130860B9F7A05DAA3308F0A95DA193009779F7C1
S1130870B111B1931192CB010C943E04DC01FC0143
S1130880672F71917723E1F7329704C07C916D93C0
S113089070836291AE17BF07C8F30895F894FFCF31
S11308A00001F401020300010204010002072020F8
S10508B0000042
S9030000FC
