S01200004E54495F524F554E44322E737265630E
S11300000C942A000C9400010C9427010C944E01CA
S11300100C9447000C9447000C9447000C94470040
S11300200C9447000C9447000C94E6010C94BF0117
S11300300C9447000C9447000C9447000C94470020
S11300400C946C000C9447000C9447000C944700EB
S11300500C94470011241FBECFE5D8E0DEBFCDBF0E
S113006010E0A0E6B0E0EEE1F4E002C005900D92ED
S1130070A436B107D9F720E0A4E6B0E001C01D9290
S1130080A037B207E1F70E9449000C940D020C94CA
S1130090000041E063E081E00E9493000E9475014A
S11300A0C0E00AC08C2F0E94BD018FEF9CE701972E
S11300B0F1F700C00000CF5FCF3FA1F70AC08C2F3B
S11300C00E94BD018FEF9CE70197F1F700C000008B
S11300D0C150C230A0F7E4CF1F920F920FB60F9217
S11300E011242F933F934F935F936F937F938F9339
S11300F09F93AF93BF93EF93FF93E0916400F091CC
S113010065000995FF91EF91BF91AF919F918F91F8
S11301107F916F915F914F913F912F910F900FBEFF
S11301200F901F901895813001F130F08230B1F1B9
S1130130833009F44CC00895413059F42AB381E066
S113014090E002C0880F991F6A95E2F7822B8ABB60
S113015008952AB381E090E002C0880F991F6A9540
S1130160E2F7809582238ABB0895413059F427B37E
S113017081E090E002C0880F991F6A95E2F7822B14
S113018087BB089527B381E090E002C0880F991FD0
S11301906A95E2F78095822387BB0895413059F42C
S11301A024B381E090E002C0880F991F6A95E2F7BA
S11301B0822B84BB089524B381E090E002C0880FB1
S11301C0991F6A95E2F78095822384BB0895413094
S11301D059F421B381E090E002C0880F991F6A9519
S11301E0E2F7822B81BB089521B381E090E002C045
S11301F0880F991F6A95E2F78095822381BB089541
S11302001F920F920FB60F9211242F933F934F9387
S11302105F936F937F938F939F93AF93BF93EF936A
S1130220FF93E0916600F09167000995FF91EF91CB
S1130230BF91AF919F918F917F916F915F914F91FA
S11302403F912F910F900FBE0F901F9018951F9202
S11302500F920FB60F9211242F933F934F935F93F6
S11302606F937F938F939F93AF93BF93EF93FF937A
S1130270E0916A00F0916B000995FF91EF91BF91B5
S1130280AF919F918F917F916F915F914F913F912A
S11302902F910F900FBE0F901F9018951F920F92E1
S11302A00FB60F9211242F933F934F935F936F9345
S11302B07F938F939F93AF93BF93EF93FF93E091BB
S11302C06800F09169000995FF91EF91BF91AF919A
S11302D09F918F917F916F915F914F913F912F915A
S11302E00F900FBE0F901F90189580916000813081
S11302F0D9F028F0823051F0833079F01BC083B7F5
S11303008F7B83BF83B7877F83BF14C083B78F7B03
S113031083BF83B7886083BF0DC083B7806483BF06
S113032083B7886083BF06C083B7806483BF83B705
S1130330877F83BF83B7887F83BF93B7E0E6F0E00E
S11303408181892B83BF83B78F7C83BF23B792813D
S113035030E1939FC0011124822B83BF89B78E7F24
S113036089BF89B78D7F89BF88B7816088BF88B707
S1130370826088BF12BE1CBE08958CBF08951F9270
S11303800F920FB60F9211242F933F934F935F93C5
S11303906F937F938F939F93AF93BF93EF93FF9349
S11303A0E0916E00F0916F000995FF91EF91BF917C
S11303B0AF919F918F917F916F915F914F913F91F9
S11303C02F910F900FBE0F901F9018951F920F92B0
S11303D00FB60F9211242F933F934F935F936F9314
S11303E07F938F939F93AF93BF93EF93FF93E0918A
S11303F06C00F0916D000995FF91EF91BF91AF9161
S11304009F918F917F916F915F914F913F912F9128
S11104100F900FBE0F901F901895F894FFCF19
S107041E03050200CC
S9030000FC
